{"abi":[{"type":"constructor","inputs":[{"name":"_feeRecipient","type":"address","internalType":"address"}],"stateMutability":"nonpayable"},{"type":"function","name":"BPS_DENOM","inputs":[],"outputs":[{"name":"","type":"uint256","internalType":"uint256"}],"stateMutability":"view"},{"type":"function","name":"FEE_BPS","inputs":[],"outputs":[{"name":"","type":"uint256","internalType":"uint256"}],"stateMutability":"view"},{"type":"function","name":"collectFee","inputs":[{"name":"token","type":"address","internalType":"address"},{"name":"grossAmount","type":"uint256","internalType":"uint256"},{"name":"vaultId","type":"string","internalType":"string"}],"outputs":[{"name":"fee","type":"uint256","internalType":"uint256"}],"stateMutability":"nonpayable"},{"type":"function","name":"feeRecipient","inputs":[],"outputs":[{"name":"","type":"address","internalType":"address"}],"stateMutability":"view"},{"type":"function","name":"owner","inputs":[],"outputs":[{"name":"","type":"address","internalType":"address"}],"stateMutability":"view"},{"type":"function","name":"renounceOwnership","inputs":[],"outputs":[],"stateMutability":"nonpayable"},{"type":"function","name":"setFeeRecipient","inputs":[{"name":"_new","type":"address","internalType":"address"}],"outputs":[],"stateMutability":"nonpayable"},{"type":"function","name":"transferOwnership","inputs":[{"name":"newOwner","type":"address","internalType":"address"}],"outputs":[],"stateMutability":"nonpayable"},{"type":"event","name":"ExecutionFeeCollected","inputs":[{"name":"payer","type":"address","indexed":true,"internalType":"address"},{"name":"token","type":"address","indexed":true,"internalType":"address"},{"name":"amount","type":"uint256","indexed":false,"internalType":"uint256"},{"name":"fee","type":"uint256","indexed":false,"internalType":"uint256"},{"name":"vaultId","type":"string","indexed":false,"internalType":"string"}],"anonymous":false},{"type":"event","name":"OwnershipTransferred","inputs":[{"name":"previousOwner","type":"address","indexed":true,"internalType":"address"},{"name":"newOwner","type":"address","indexed":true,"internalType":"address"}],"anonymous":false},{"type":"error","name":"OwnableInvalidOwner","inputs":[{"name":"owner","type":"address","internalType":"address"}]},{"type":"error","name":"OwnableUnauthorizedAccount","inputs":[{"name":"account","type":"address","internalType":"address"}]}],"bytecode":{"object":"0x608060405234801561000f575f80fd5b5060405162000c5b38038062000c5b83398181016040528101906100339190610219565b335f73ffffffffffffffffffffffffffffffffffffffff168173ffffffffffffffffffffffffffffffffffffffff16036100a4575f6040517f1e4fbdf700000000000000000000000000000000000000000000000000000000815260040161009b9190610253565b60405180910390fd5b6100b3816100fa60201b60201c565b508060015f6101000a81548173ffffffffffffffffffffffffffffffffffffffff021916908373ffffffffffffffffffffffffffffffffffffffff1602179055505061026c565b5f805f9054906101000a900473ffffffffffffffffffffffffffffffffffffffff169050815f806101000a81548173ffffffffffffffffffffffffffffffffffffffff021916908373ffffffffffffffffffffffffffffffffffffffff1602179055508173ffffffffffffffffffffffffffffffffffffffff168173ffffffffffffffffffffffffffffffffffffffff167f8be0079c531659141344cd1fd0a4f28419497f9722a3daafe3b4186f6b6457e060405160405180910390a35050565b5f80fd5b5f73ffffffffffffffffffffffffffffffffffffffff82169050919050565b5f6101e8826101bf565b9050919050565b6101f8816101de565b8114610202575f80fd5b50565b5f81519050610213816101ef565b92915050565b5f6020828403121561022e5761022d6101bb565b5b5f61023b84828501610205565b91505092915050565b61024d816101de565b82525050565b5f6020820190506102665f830184610244565b92915050565b6109e1806200027a5f395ff3fe608060405234801561000f575f80fd5b5060043610610086575f3560e01c80639f3043c3116100595780639f3043c3146100ee578063bf333f2c1461011e578063e74b981b1461013c578063f2fde38b1461015857610086565b8063469048401461008a5780636637e38c146100a8578063715018a6146100c65780638da5cb5b146100d0575b5f80fd5b610092610174565b60405161009f91906105a8565b60405180910390f35b6100b0610199565b6040516100bd91906105d9565b60405180910390f35b6100ce61019f565b005b6100d86101b2565b6040516100e591906105a8565b60405180910390f35b610108600480360381019061010391906106af565b6101d9565b60405161011591906105d9565b60405180910390f35b610126610346565b60405161013391906105d9565b60405180910390f35b61015660048036038101906101519190610720565b61034b565b005b610172600480360381019061016d9190610720565b610396565b005b60015f9054906101000a900473ffffffffffffffffffffffffffffffffffffffff1681565b61271081565b6101a761041a565b6101b05f6104a1565b565b5f805f9054906101000a900473ffffffffffffffffffffffffffffffffffffffff16905090565b5f6127106041856101ea9190610778565b6101f491906107e6565b90508473ffffffffffffffffffffffffffffffffffffffff166323b872dd3360015f9054906101000a900473ffffffffffffffffffffffffffffffffffffffff16846040518463ffffffff1660e01b815260040161025493929190610816565b6020604051808303815f875af1158015610270573d5f803e3d5ffd5b505050506040513d601f19601f820116820180604052508101906102949190610880565b6102d3576040517f08c379a00000000000000000000000000000000000000000000000000000000081526004016102ca90610905565b60405180910390fd5b8473ffffffffffffffffffffffffffffffffffffffff163373ffffffffffffffffffffffffffffffffffffffff167f918f4c5f8b52474077a8eef1da3b1f8b353128a614495031e6ede1e07c31feeb86848787604051610336949392919061096d565b60405180910390a3949350505050565b604181565b61035361041a565b8060015f6101000a81548173ffffffffffffffffffffffffffffffffffffffff021916908373ffffffffffffffffffffffffffffffffffffffff16021790555050565b61039e61041a565b5f73ffffffffffffffffffffffffffffffffffffffff168173ffffffffffffffffffffffffffffffffffffffff160361040e575f6040517f1e4fbdf700000000000000000000000000000000000000000000000000000000815260040161040591906105a8565b60405180910390fd5b610417816104a1565b50565b610422610562565b73ffffffffffffffffffffffffffffffffffffffff166104406101b2565b73ffffffffffffffffffffffffffffffffffffffff161461049f57610463610562565b6040517f118cdaa700000000000000000000000000000000000000000000000000000000815260040161049691906105a8565b60405180910390fd5b565b5f805f9054906101000a900473ffffffffffffffffffffffffffffffffffffffff169050815f806101000a81548173ffffffffffffffffffffffffffffffffffffffff021916908373ffffffffffffffffffffffffffffffffffffffff1602179055508173ffffffffffffffffffffffffffffffffffffffff168173ffffffffffffffffffffffffffffffffffffffff167f8be0079c531659141344cd1fd0a4f28419497f9722a3daafe3b4186f6b6457e060405160405180910390a35050565b5f33905090565b5f73ffffffffffffffffffffffffffffffffffffffff82169050919050565b5f61059282610569565b9050919050565b6105a281610588565b82525050565b5f6020820190506105bb5f830184610599565b92915050565b5f819050919050565b6105d3816105c1565b82525050565b5f6020820190506105ec5f8301846105ca565b92915050565b5f80fd5b5f80fd5b61060381610588565b811461060d575f80fd5b50565b5f8135905061061e816105fa565b92915050565b61062d816105c1565b8114610637575f80fd5b50565b5f8135905061064881610624565b92915050565b5f80fd5b5f80fd5b5f80fd5b5f8083601f84011261066f5761066e61064e565b5b8235905067ffffffffffffffff81111561068c5761068b610652565b5b6020830191508360018202830111156106a8576106a7610656565b5b9250929050565b5f805f80606085870312156106c7576106c66105f2565b5b5f6106d487828801610610565b94505060206106e58782880161063a565b935050604085013567ffffffffffffffff811115610706576107056105f6565b5b6107128782880161065a565b925092505092959194509250565b5f60208284031215610735576107346105f2565b5b5f61074284828501610610565b91505092915050565b7f4e487b71000000000000000000000000000000000000000000000000000000005f52601160045260245ffd5b5f610782826105c1565b915061078d836105c1565b925082820261079b816105c1565b915082820484148315176107b2576107b161074b565b5b5092915050565b7f4e487b71000000000000000000000000000000000000000000000000000000005f52601260045260245ffd5b5f6107f0826105c1565b91506107fb836105c1565b92508261080b5761080a6107b9565b5b828204905092915050565b5f6060820190506108295f830186610599565b6108366020830185610599565b61084360408301846105ca565b949350505050565b5f8115159050919050565b61085f8161084b565b8114610869575f80fd5b50565b5f8151905061087a81610856565b92915050565b5f60208284031215610895576108946105f2565b5b5f6108a28482850161086c565b91505092915050565b5f82825260208201905092915050565b7f466565207472616e73666572206661696c6564000000000000000000000000005f82015250565b5f6108ef6013836108ab565b91506108fa826108bb565b602082019050919050565b5f6020820190508181035f83015261091c816108e3565b9050919050565b828183375f83830152505050565b5f601f19601f8301169050919050565b5f61094c83856108ab565b9350610959838584610923565b61096283610931565b840190509392505050565b5f6060820190506109805f8301876105ca565b61098d60208301866105ca565b81810360408301526109a0818486610941565b90509594505050505056fea264697066735822122091f9beacecf2f81aca5a67a2aeb1d3caff4302064d95afd0b98833811ac3bb2e64736f6c63430008140033","linkReferences":{}},"methodIdentifiers":{"BPS_DENOM()":"6637e38c","FEE_BPS()":"bf333f2c","collectFee(address,uint256,string)":"9f3043c3","feeRecipient()":"46904840","owner()":"8da5cb5b","renounceOwnership()":"715018a6","setFeeRecipient(address)":"e74b981b","transferOwnership(address)":"f2fde38b"},"id":26}