{
  "_format": "hh3-artifact-1",
  "contractName": "VaultAgentFeeWrapper",
  "sourceName": "contracts/VaultAgentFeeWrapper.sol",
  "abi": [
    {
      "inputs": [
        {
          "internalType": "address",
          "name": "_feeRecipient",
          "type": "address"
        }
      ],
      "stateMutability": "nonpayable",
      "type": "constructor"
    },
    {
      "anonymous": false,
      "inputs": [
        {
          "indexed": false,
          "internalType": "address",
          "name": "oldRecipient",
          "type": "address"
        },
        {
          "indexed": false,
          "internalType": "address",
          "name": "newRecipient",
          "type": "address"
        }
      ],
      "name": "FeeRecipientUpdated",
      "type": "event"
    },
    {
      "anonymous": false,
      "inputs": [
        {
          "indexed": false,
          "internalType": "uint256",
          "name": "oldBps",
          "type": "uint256"
        },
        {
          "indexed": false,
          "internalType": "uint256",
          "name": "newBps",
          "type": "uint256"
        }
      ],
      "name": "FeeUpdated",
      "type": "event"
    },
    {
      "anonymous": false,
      "inputs": [
        {
          "indexed": false,
          "internalType": "address",
          "name": "recipient",
          "type": "address"
        },
        {
          "indexed": false,
          "internalType": "uint256",
          "name": "amount",
          "type": "uint256"
        }
      ],
      "name": "FeesWithdrawn",
      "type": "event"
    },
    {
      "anonymous": false,
      "inputs": [
        {
          "indexed": true,
          "internalType": "address",
          "name": "user",
          "type": "address"
        },
        {
          "indexed": true,
          "internalType": "address",
          "name": "vault",
          "type": "address"
        },
        {
          "indexed": false,
          "internalType": "uint256[]",
          "name": "tokenIds",
          "type": "uint256[]"
        },
        {
          "indexed": false,
          "internalType": "uint256",
          "name": "vTokensMinted",
          "type": "uint256"
        },
        {
          "indexed": false,
          "internalType": "uint256",
          "name": "feeCollectedWei",
          "type": "uint256"
        }
      ],
      "name": "MintRouted",
      "type": "event"
    },
    {
      "anonymous": false,
      "inputs": [
        {
          "indexed": true,
          "internalType": "address",
          "name": "user",
          "type": "address"
        },
        {
          "indexed": true,
          "internalType": "address",
          "name": "vault",
          "type": "address"
        },
        {
          "indexed": false,
          "internalType": "uint256",
          "name": "numNFTs",
          "type": "uint256"
        },
        {
          "indexed": false,
          "internalType": "uint256[]",
          "name": "specificIds",
          "type": "uint256[]"
        },
        {
          "indexed": false,
          "internalType": "uint256",
          "name": "feeCollectedWei",
          "type": "uint256"
        }
      ],
      "name": "RedeemRouted",
      "type": "event"
    },
    {
      "anonymous": false,
      "inputs": [
        {
          "indexed": true,
          "internalType": "address",
          "name": "user",
          "type": "address"
        },
        {
          "indexed": true,
          "internalType": "address",
          "name": "vault",
          "type": "address"
        },
        {
          "indexed": false,
          "internalType": "uint256[]",
          "name": "depositIds",
          "type": "uint256[]"
        },
        {
          "indexed": false,
          "internalType": "uint256[]",
          "name": "receiveIds",
          "type": "uint256[]"
        },
        {
          "indexed": false,
          "internalType": "uint256",
          "name": "feeCollectedWei",
          "type": "uint256"
        }
      ],
      "name": "SwapRouted",
      "type": "event"
    },
    {
      "inputs": [],
      "name": "MAX_FEE_BPS",
      "outputs": [
        {
          "internalType": "uint256",
          "name": "",
          "type": "uint256"
        }
      ],
      "stateMutability": "view",
      "type": "function"
    },
    {
      "inputs": [],
      "name": "feeBps",
      "outputs": [
        {
          "internalType": "uint256",
          "name": "",
          "type": "uint256"
        }
      ],
      "stateMutability": "view",
      "type": "function"
    },
    {
      "inputs": [],
      "name": "feeRecipient",
      "outputs": [
        {
          "internalType": "address",
          "name": "",
          "type": "address"
        }
      ],
      "stateMutability": "view",
      "type": "function"
    },
    {
      "inputs": [
        {
          "internalType": "address",
          "name": "vault",
          "type": "address"
        },
        {
          "internalType": "address",
          "name": "nftContract",
          "type": "address"
        },
        {
          "internalType": "uint256[]",
          "name": "tokenIds",
          "type": "uint256[]"
        }
      ],
      "name": "mintViaWrapper",
      "outputs": [
        {
          "internalType": "uint256",
          "name": "vTokensMinted",
          "type": "uint256"
        }
      ],
      "stateMutability": "payable",
      "type": "function"
    },
    {
      "inputs": [],
      "name": "owner",
      "outputs": [
        {
          "internalType": "address",
          "name": "",
          "type": "address"
        }
      ],
      "stateMutability": "view",
      "type": "function"
    },
    {
      "inputs": [
        {
          "internalType": "uint256",
          "name": "ethAmountWei",
          "type": "uint256"
        }
      ],
      "name": "quoteFee",
      "outputs": [
        {
          "internalType": "uint256",
          "name": "feeWei",
          "type": "uint256"
        },
        {
          "internalType": "uint256",
          "name": "netWei",
          "type": "uint256"
        }
      ],
      "stateMutability": "view",
      "type": "function"
    },
    {
      "inputs": [
        {
          "internalType": "address",
          "name": "vault",
          "type": "address"
        },
        {
          "internalType": "uint256",
          "name": "numNFTs",
          "type": "uint256"
        },
        {
          "internalType": "uint256",
          "name": "wethAmount",
          "type": "uint256"
        }
      ],
      "name": "redeemRandomViaWrapper",
      "outputs": [
        {
          "internalType": "uint256[]",
          "name": "redeemedIds",
          "type": "uint256[]"
        }
      ],
      "stateMutability": "payable",
      "type": "function"
    },
    {
      "inputs": [
        {
          "internalType": "address",
          "name": "vault",
          "type": "address"
        },
        {
          "internalType": "uint256[]",
          "name": "specificIds",
          "type": "uint256[]"
        },
        {
          "internalType": "uint256",
          "name": "wethAmount",
          "type": "uint256"
        }
      ],
      "name": "redeemTargetedViaWrapper",
      "outputs": [
        {
          "internalType": "uint256[]",
          "name": "redeemedIds",
          "type": "uint256[]"
        }
      ],
      "stateMutability": "payable",
      "type": "function"
    },
    {
      "inputs": [
        {
          "internalType": "uint256",
          "name": "newFeeBps",
          "type": "uint256"
        }
      ],
      "name": "setFeeBps",
      "outputs": [],
      "stateMutability": "nonpayable",
      "type": "function"
    },
    {
      "inputs": [
        {
          "internalType": "address",
          "name": "newRecipient",
          "type": "address"
        }
      ],
      "name": "setFeeRecipient",
      "outputs": [],
      "stateMutability": "nonpayable",
      "type": "function"
    },
    {
      "inputs": [
        {
          "internalType": "address",
          "name": "newOwner",
          "type": "address"
        }
      ],
      "name": "transferOwnership",
      "outputs": [],
      "stateMutability": "nonpayable",
      "type": "function"
    },
    {
      "inputs": [],
      "name": "withdrawFees",
      "outputs": [],
      "stateMutability": "nonpayable",
      "type": "function"
    },
    {
      "stateMutability": "payable",
      "type": "receive"
    }
  ],
  "bytecode": "0x60806040526019600255348015610014575f5ffd5b5060405161213338038061213383398181016040528101906100369190610187565b5f73ffffffffffffffffffffffffffffffffffffffff168173ffffffffffffffffffffffffffffffffffffffff16036100a4576040517f08c379a000000000000000000000000000000000000000000000000000000000815260040161009b9061020c565b60405180910390fd5b335f5f6101000a81548173ffffffffffffffffffffffffffffffffffffffff021916908373ffffffffffffffffffffffffffffffffffffffff1602179055508060015f6101000a81548173ffffffffffffffffffffffffffffffffffffffff021916908373ffffffffffffffffffffffffffffffffffffffff1602179055505061022a565b5f5ffd5b5f73ffffffffffffffffffffffffffffffffffffffff82169050919050565b5f6101568261012d565b9050919050565b6101668161014c565b8114610170575f5ffd5b50565b5f815190506101818161015d565b92915050565b5f6020828403121561019c5761019b610129565b5b5f6101a984828501610173565b91505092915050565b5f82825260208201905092915050565b7f5661756c744167656e743a207a65726f206164647265737300000000000000005f82015250565b5f6101f66018836101b2565b9150610201826101c2565b602082019050919050565b5f6020820190508181035f830152610223816101ea565b9050919050565b611efc806102375f395ff3fe6080604052600436106100aa575f3560e01c806372c27b621161006357806372c27b62146101bc57806385d9546c146101e45780638da5cb5b14610214578063d55be8c61461023e578063e74b981b14610268578063f2fde38b14610290576100b1565b806316a80414146100b55780632205f568146100e557806324a9d8531461012257806341b90c621461014c578063469048401461017c578063476343ee146101a6576100b1565b366100b157005b5f5ffd5b6100cf60048036038101906100ca9190611197565b6102b8565b6040516100dc919061129e565b60405180910390f35b3480156100f0575f5ffd5b5061010b600480360381019061010691906112be565b6104f2565b6040516101199291906112f8565b60405180910390f35b34801561012d575f5ffd5b50610136610512565b604051610143919061131f565b60405180910390f35b61016660048036038101906101619190611399565b610518565b604051610173919061129e565b60405180910390f35b348015610187575f5ffd5b50610190610716565b60405161019d9190611419565b60405180910390f35b3480156101b1575f5ffd5b506101ba61073b565b005b3480156101c7575f5ffd5b506101e260048036038101906101dd91906112be565b6108a8565b005b6101fe60048036038101906101f99190611432565b6109bf565b60405161020b919061131f565b60405180910390f35b34801561021f575f5ffd5b50610228610dd6565b6040516102359190611419565b60405180910390f35b348015610249575f5ffd5b50610252610dfa565b60405161025f919061131f565b60405180910390f35b348015610273575f5ffd5b5061028e600480360381019061028991906114a3565b610dff565b005b34801561029b575f5ffd5b506102b660048036038101906102b191906114a3565b610f98565b005b60605f83116102fc576040517f08c379a00000000000000000000000000000000000000000000000000000000081526004016102f390611528565b60405180910390fd5b5f670de0b6b3a7640000846103119190611573565b90508473ffffffffffffffffffffffffffffffffffffffff166323b872dd3330846040518463ffffffff1660e01b8152600401610350939291906115b4565b6020604051808303815f875af115801561036c573d5f5f3e3d5ffd5b505050506040513d601f19601f82011682018060405250810190610390919061161e565b505f61039b346110d6565b90505f81346103aa9190611649565b90505f5f67ffffffffffffffff8111156103c7576103c661167c565b5b6040519080825280602002602001820160405280156103f55781602001602082028036833780820191505090505b5090508773ffffffffffffffffffffffffffffffffffffffff1663da7ccdb58389848a5f6040518663ffffffff1660e01b815260040161043894939291906116b8565b5f6040518083038185885af1158015610453573d5f5f3e3d5ffd5b50505050506040513d5f823e3d601f19601f8201168201806040525081019061047c9190611831565b94508773ffffffffffffffffffffffffffffffffffffffff163373ffffffffffffffffffffffffffffffffffffffff167fa861ab0704be4561a771c1a650b89274db84b9b884f0137f7ed3196bb6dd8e4f8984876040516104df93929190611878565b60405180910390a3505050509392505050565b5f5f6104fd836110d6565b9150818361050b9190611649565b9050915091565b60025481565b60605f848490501161055f576040517f08c379a0000000000000000000000000000000000000000000000000000000008152600401610556906118fe565b60405180910390fd5b5f670de0b6b3a7640000858590506105779190611573565b90508573ffffffffffffffffffffffffffffffffffffffff166323b872dd3330846040518463ffffffff1660e01b81526004016105b6939291906115b4565b6020604051808303815f875af11580156105d2573d5f5f3e3d5ffd5b505050506040513d601f19601f820116820180604052508101906105f6919061161e565b505f610601346110d6565b90505f81346106109190611649565b90508773ffffffffffffffffffffffffffffffffffffffff1663da7ccdb582898990508a8a8a5f6040518763ffffffff1660e01b8152600401610657959493929190611984565b5f6040518083038185885af1158015610672573d5f5f3e3d5ffd5b50505050506040513d5f823e3d601f19601f8201168201806040525081019061069b9190611831565b93508773ffffffffffffffffffffffffffffffffffffffff163373ffffffffffffffffffffffffffffffffffffffff167fa861ab0704be4561a771c1a650b89274db84b9b884f0137f7ed3196bb6dd8e4f898990508a8a8760405161070394939291906119d0565b60405180910390a3505050949350505050565b60015f9054906101000a900473ffffffffffffffffffffffffffffffffffffffff1681565b5f4790505f8111610781576040517f08c379a000000000000000000000000000000000000000000000000000000000815260040161077890611a58565b60405180910390fd5b5f60015f9054906101000a900473ffffffffffffffffffffffffffffffffffffffff1673ffffffffffffffffffffffffffffffffffffffff16826040516107c790611aa3565b5f6040518083038185875af1925050503d805f8114610801576040519150601f19603f3d011682016040523d82523d5f602084013e610806565b606091505b505090508061084a576040517f08c379a000000000000000000000000000000000000000000000000000000000815260040161084190611b01565b60405180910390fd5b7fc0819c13be868895eb93e40eaceb96de976442fa1d404e5c55f14bb65a8c489a60015f9054906101000a900473ffffffffffffffffffffffffffffffffffffffff168360405161089c929190611b1f565b60405180910390a15050565b5f5f9054906101000a900473ffffffffffffffffffffffffffffffffffffffff1673ffffffffffffffffffffffffffffffffffffffff163373ffffffffffffffffffffffffffffffffffffffff1614610936576040517f08c379a000000000000000000000000000000000000000000000000000000000815260040161092d90611b90565b60405180910390fd5b606481111561097a576040517f08c379a000000000000000000000000000000000000000000000000000000000815260040161097190611bf8565b60405180910390fd5b7f528d9479e9f9889a87a3c30c7f7ba537e5e59c4c85a37733b16e57c62df61302600254826040516109ad9291906112f8565b60405180910390a18060028190555050565b5f5f8383905011610a05576040517f08c379a00000000000000000000000000000000000000000000000000000000081526004016109fc90611c60565b60405180910390fd5b5f73ffffffffffffffffffffffffffffffffffffffff168573ffffffffffffffffffffffffffffffffffffffff1603610a73576040517f08c379a0000000000000000000000000000000000000000000000000000000008152600401610a6a90611cc8565b60405180910390fd5b5f610a7d346110d6565b90505f8134610a8c9190611649565b90505f5f90505b85859050811015610b2e578673ffffffffffffffffffffffffffffffffffffffff166323b872dd3330898986818110610acf57610ace611ce6565b5b905060200201356040518463ffffffff1660e01b8152600401610af4939291906115b4565b5f604051808303815f87803b158015610b0b575f5ffd5b505af1158015610b1d573d5f5f3e3d5ffd5b505050508080600101915050610a93565b508573ffffffffffffffffffffffffffffffffffffffff1663e985e9c530896040518363ffffffff1660e01b8152600401610b6a929190611d13565b602060405180830381865afa158015610b85573d5f5f3e3d5ffd5b505050506040513d601f19601f82011682018060405250810190610ba9919061161e565b610c17578573ffffffffffffffffffffffffffffffffffffffff1663a22cb4658860016040518363ffffffff1660e01b8152600401610be9929190611d3a565b5f604051808303815f87803b158015610c00575f5ffd5b505af1158015610c12573d5f5f3e3d5ffd5b505050505b5f5f67ffffffffffffffff811115610c3257610c3161167c565b5b604051908082528060200260200182016040528015610c605781602001602082028036833780820191505090505b5090508773ffffffffffffffffffffffffffffffffffffffff16633d5d190c838888856040518563ffffffff1660e01b8152600401610ca193929190611d61565b60206040518083038185885af1158015610cbd573d5f5f3e3d5ffd5b50505050506040513d601f19601f82011682018060405250810190610ce29190611d98565b93508773ffffffffffffffffffffffffffffffffffffffff1663a9059cbb33866040518363ffffffff1660e01b8152600401610d1f929190611b1f565b6020604051808303815f875af1158015610d3b573d5f5f3e3d5ffd5b505050506040513d601f19601f82011682018060405250810190610d5f919061161e565b508773ffffffffffffffffffffffffffffffffffffffff163373ffffffffffffffffffffffffffffffffffffffff167ff7b40ae9ec2d16211693968d70a8384bb48b70a718e7e0b02cc11f9d2ccb5c9688888888604051610dc39493929190611dc3565b60405180910390a3505050949350505050565b5f5f9054906101000a900473ffffffffffffffffffffffffffffffffffffffff1681565b606481565b5f5f9054906101000a900473ffffffffffffffffffffffffffffffffffffffff1673ffffffffffffffffffffffffffffffffffffffff163373ffffffffffffffffffffffffffffffffffffffff1614610e8d576040517f08c379a0000000000000000000000000000000000000000000000000000000008152600401610e8490611b90565b60405180910390fd5b5f73ffffffffffffffffffffffffffffffffffffffff168173ffffffffffffffffffffffffffffffffffffffff1603610efb576040517f08c379a0000000000000000000000000000000000000000000000000000000008152600401610ef290611e4b565b60405180910390fd5b7faaebcf1bfa00580e41d966056b48521fa9f202645c86d4ddf28113e617c1b1d360015f9054906101000a900473ffffffffffffffffffffffffffffffffffffffff1682604051610f4d929190611d13565b60405180910390a18060015f6101000a81548173ffffffffffffffffffffffffffffffffffffffff021916908373ffffffffffffffffffffffffffffffffffffffff16021790555050565b5f5f9054906101000a900473ffffffffffffffffffffffffffffffffffffffff1673ffffffffffffffffffffffffffffffffffffffff163373ffffffffffffffffffffffffffffffffffffffff1614611026576040517f08c379a000000000000000000000000000000000000000000000000000000000815260040161101d90611b90565b60405180910390fd5b5f73ffffffffffffffffffffffffffffffffffffffff168173ffffffffffffffffffffffffffffffffffffffff1603611094576040517f08c379a000000000000000000000000000000000000000000000000000000000815260040161108b90611e4b565b60405180910390fd5b805f5f6101000a81548173ffffffffffffffffffffffffffffffffffffffff021916908373ffffffffffffffffffffffffffffffffffffffff16021790555050565b5f612710600254836110e89190611573565b6110f29190611e96565b9050919050565b5f604051905090565b5f5ffd5b5f5ffd5b5f73ffffffffffffffffffffffffffffffffffffffff82169050919050565b5f6111338261110a565b9050919050565b61114381611129565b811461114d575f5ffd5b50565b5f8135905061115e8161113a565b92915050565b5f819050919050565b61117681611164565b8114611180575f5ffd5b50565b5f813590506111918161116d565b92915050565b5f5f5f606084860312156111ae576111ad611102565b5b5f6111bb86828701611150565b93505060206111cc86828701611183565b92505060406111dd86828701611183565b9150509250925092565b5f81519050919050565b5f82825260208201905092915050565b5f819050602082019050919050565b61121981611164565b82525050565b5f61122a8383611210565b60208301905092915050565b5f602082019050919050565b5f61124c826111e7565b61125681856111f1565b935061126183611201565b805f5b83811015611291578151611278888261121f565b975061128383611236565b925050600181019050611264565b5085935050505092915050565b5f6020820190508181035f8301526112b68184611242565b905092915050565b5f602082840312156112d3576112d2611102565b5b5f6112e084828501611183565b91505092915050565b6112f281611164565b82525050565b5f60408201905061130b5f8301856112e9565b61131860208301846112e9565b9392505050565b5f6020820190506113325f8301846112e9565b92915050565b5f5ffd5b5f5ffd5b5f5ffd5b5f5f83601f84011261135957611358611338565b5b8235905067ffffffffffffffff8111156113765761137561133c565b5b60208301915083602082028301111561139257611391611340565b5b9250929050565b5f5f5f5f606085870312156113b1576113b0611102565b5b5f6113be87828801611150565b945050602085013567ffffffffffffffff8111156113df576113de611106565b5b6113eb87828801611344565b935093505060406113fe87828801611183565b91505092959194509250565b61141381611129565b82525050565b5f60208201905061142c5f83018461140a565b92915050565b5f5f5f5f6060858703121561144a57611449611102565b5b5f61145787828801611150565b945050602061146887828801611150565b935050604085013567ffffffffffffffff81111561148957611488611106565b5b61149587828801611344565b925092505092959194509250565b5f602082840312156114b8576114b7611102565b5b5f6114c584828501611150565b91505092915050565b5f82825260208201905092915050565b7f5661756c744167656e743a206e756d4e465473203d20300000000000000000005f82015250565b5f6115126017836114ce565b915061151d826114de565b602082019050919050565b5f6020820190508181035f83015261153f81611506565b9050919050565b7f4e487b71000000000000000000000000000000000000000000000000000000005f52601160045260245ffd5b5f61157d82611164565b915061158883611164565b925082820261159681611164565b915082820484148315176115ad576115ac611546565b5b5092915050565b5f6060820190506115c75f83018661140a565b6115d4602083018561140a565b6115e160408301846112e9565b949350505050565b5f8115159050919050565b6115fd816115e9565b8114611607575f5ffd5b50565b5f81519050611618816115f4565b92915050565b5f6020828403121561163357611632611102565b5b5f6116408482850161160a565b91505092915050565b5f61165382611164565b915061165e83611164565b925082820390508181111561167657611675611546565b5b92915050565b7f4e487b71000000000000000000000000000000000000000000000000000000005f52604160045260245ffd5b6116b2816115e9565b82525050565b5f6080820190506116cb5f8301876112e9565b81810360208301526116dd8186611242565b90506116ec60408301856112e9565b6116f960608301846116a9565b95945050505050565b5f601f19601f8301169050919050565b61171b82611702565b810181811067ffffffffffffffff8211171561173a5761173961167c565b5b80604052505050565b5f61174c6110f9565b90506117588282611712565b919050565b5f67ffffffffffffffff8211156117775761177661167c565b5b602082029050602081019050919050565b5f815190506117968161116d565b92915050565b5f6117ae6117a98461175d565b611743565b905080838252602082019050602084028301858111156117d1576117d0611340565b5b835b818110156117fa57806117e68882611788565b8452602084019350506020810190506117d3565b5050509392505050565b5f82601f83011261181857611817611338565b5b815161182884826020860161179c565b91505092915050565b5f6020828403121561184657611845611102565b5b5f82015167ffffffffffffffff81111561186357611862611106565b5b61186f84828501611804565b91505092915050565b5f60608201905061188b5f8301866112e9565b818103602083015261189d8185611242565b90506118ac60408301846112e9565b949350505050565b7f5661756c744167656e743a206e6f2074617267657449647300000000000000005f82015250565b5f6118e86018836114ce565b91506118f3826118b4565b602082019050919050565b5f6020820190508181035f830152611915816118dc565b9050919050565b5f5ffd5b82818337505050565b5f61193483856111f1565b93507f07ffffffffffffffffffffffffffffffffffffffffffffffffffffffffffffff8311156119675761196661191c565b5b602083029250611978838584611920565b82840190509392505050565b5f6080820190506119975f8301886112e9565b81810360208301526119aa818688611929565b90506119b960408301856112e9565b6119c660608301846116a9565b9695505050505050565b5f6060820190506119e35f8301876112e9565b81810360208301526119f6818587611929565b9050611a0560408301846112e9565b95945050505050565b7f5661756c744167656e743a206e6f7468696e6720746f207769746864726177005f82015250565b5f611a42601f836114ce565b9150611a4d82611a0e565b602082019050919050565b5f6020820190508181035f830152611a6f81611a36565b9050919050565b5f81905092915050565b50565b5f611a8e5f83611a76565b9150611a9982611a80565b5f82019050919050565b5f611aad82611a83565b9150819050919050565b7f5661756c744167656e743a207472616e73666572206661696c656400000000005f82015250565b5f611aeb601b836114ce565b9150611af682611ab7565b602082019050919050565b5f6020820190508181035f830152611b1881611adf565b9050919050565b5f604082019050611b325f83018561140a565b611b3f60208301846112e9565b9392505050565b7f5661756c744167656e743a206e6f74206f776e657200000000000000000000005f82015250565b5f611b7a6015836114ce565b9150611b8582611b46565b602082019050919050565b5f6020820190508181035f830152611ba781611b6e565b9050919050565b7f5661756c744167656e743a2066656520746f6f206869676800000000000000005f82015250565b5f611be26018836114ce565b9150611bed82611bae565b602082019050919050565b5f6020820190508181035f830152611c0f81611bd6565b9050919050565b7f5661756c744167656e743a206e6f20746f6b656e4964730000000000000000005f82015250565b5f611c4a6017836114ce565b9150611c5582611c16565b602082019050919050565b5f6020820190508181035f830152611c7781611c3e565b9050919050565b7f5661756c744167656e743a207a65726f207661756c74000000000000000000005f82015250565b5f611cb26016836114ce565b9150611cbd82611c7e565b602082019050919050565b5f6020820190508181035f830152611cdf81611ca6565b9050919050565b7f4e487b71000000000000000000000000000000000000000000000000000000005f52603260045260245ffd5b5f604082019050611d265f83018561140a565b611d33602083018461140a565b9392505050565b5f604082019050611d4d5f83018561140a565b611d5a60208301846116a9565b9392505050565b5f6040820190508181035f830152611d7a818587611929565b90508181036020830152611d8e8184611242565b9050949350505050565b5f60208284031215611dad57611dac611102565b5b5f611dba84828501611788565b91505092915050565b5f6060820190508181035f830152611ddc818688611929565b9050611deb60208301856112e9565b611df860408301846112e9565b95945050505050565b7f5661756c744167656e743a207a65726f206164647265737300000000000000005f82015250565b5f611e356018836114ce565b9150611e4082611e01565b602082019050919050565b5f6020820190508181035f830152611e6281611e29565b9050919050565b7f4e487b71000000000000000000000000000000000000000000000000000000005f52601260045260245ffd5b5f611ea082611164565b9150611eab83611164565b925082611ebb57611eba611e69565b5b82820490509291505056fea2646970667358221220b54f7191f6acf3b5e02f5b9d141ae6b1ed529a60e04454e79f09137904daf0c564736f6c634300081c0033",
  "linkReferences": {},
  "deployedLinkReferences": {},
  "immutableReferences": {},
  "inputSourceName": "project/contracts/VaultAgentFeeWrapper.sol",
  "buildInfoId": "solc-0_8_28-f6fcda38d311f9e824c82af70a86c01ff7e96c2d"
}